{
  "address": "0xb65ac4b7fbC361b5FCb573da001B5A66faF661e4",
  "abi": [
    {
      "inputs": [],
      "stateMutability": "nonpayable",
      "type": "constructor"
    },
    {
      "anonymous": false,
      "inputs": [
        {
          "indexed": true,
          "internalType": "enum Roles",
          "name": "role",
          "type": "uint8"
        },
        {
          "indexed": true,
          "internalType": "address",
          "name": "account",
          "type": "address"
        },
        {
          "indexed": true,
          "internalType": "address",
          "name": "sender",
          "type": "address"
        }
      ],
      "name": "RoleGranted",
      "type": "event"
    },
    {
      "anonymous": false,
      "inputs": [
        {
          "indexed": true,
          "internalType": "enum Roles",
          "name": "role",
          "type": "uint8"
        },
        {
          "indexed": true,
          "internalType": "address",
          "name": "account",
          "type": "address"
        },
        {
          "indexed": true,
          "internalType": "address",
          "name": "sender",
          "type": "address"
        }
      ],
      "name": "RoleRevoked",
      "type": "event"
    },
    {
      "inputs": [
        {
          "internalType": "address",
          "name": "account",
          "type": "address"
        }
      ],
      "name": "getRole",
      "outputs": [
        {
          "internalType": "enum Roles",
          "name": "",
          "type": "uint8"
        }
      ],
      "stateMutability": "view",
      "type": "function"
    },
    {
      "inputs": [
        {
          "internalType": "enum Roles",
          "name": "role",
          "type": "uint8"
        },
        {
          "internalType": "address",
          "name": "account",
          "type": "address"
        }
      ],
      "name": "grantRole",
      "outputs": [],
      "stateMutability": "nonpayable",
      "type": "function"
    },
    {
      "inputs": [
        {
          "internalType": "enum Roles",
          "name": "role",
          "type": "uint8"
        },
        {
          "internalType": "address",
          "name": "account",
          "type": "address"
        }
      ],
      "name": "hasRole",
      "outputs": [
        {
          "internalType": "bool",
          "name": "",
          "type": "bool"
        }
      ],
      "stateMutability": "view",
      "type": "function"
    },
    {
      "inputs": [
        {
          "internalType": "address",
          "name": "account",
          "type": "address"
        }
      ],
      "name": "revokeRole",
      "outputs": [],
      "stateMutability": "nonpayable",
      "type": "function"
    }
  ],
  "transactionHash": "0x24498055330b54a67b2c0c42d7526b7f9e8ae68be8a5d3986f1797795b62ec32",
  "args": [],
  "numDeployments": 1,
  "solcInputHash": "6d9ef773a063f24b7ab1a105dac1af4a",
  "bytecode": "0x608060405234801561001057600080fd5b50336000908152602081905260409020805460ff191660031790556106ef8061003a6000396000f3fe608060405234801561001057600080fd5b506004361061004c5760003560e01c806344276733146100515780635d5664e1146100a057806380e52e3f146100b55780639e97b8f6146100c8575b600080fd5b61008a61005f3660046105ee565b73ffffffffffffffffffffffffffffffffffffffff1660009081526020819052604090205460ff1690565b604051610097919061063f565b60405180910390f35b6100b36100ae366004610680565b6100eb565b005b6100b36100c33660046105ee565b610284565b6100db6100d6366004610680565b610467565b6040519015158152602001610097565b60026100f78133610467565b8061012557503360009081526020819052604090205460039060ff168181111561012357610123610610565b145b61019c5760405162461bcd60e51b815260206004820152602660248201527f416363657373526f6c65733a20726571756972656420726f6c65206e6f74206760448201527f72616e746564000000000000000000000000000000000000000000000000000060648201526084015b60405180910390fd5b60028360038111156101b0576101b0610610565b14806101cd575060038360038111156101cb576101cb610610565b145b15610275576101dd600333610467565b6102755760405162461bcd60e51b815260206004820152604360248201527f416363657373526f6c65733a20746f206772616e742061646d696e206f72206860448201527f6561642061646d696e20726f6c652c20686561642061646d696e20726571756960648201527f7265640000000000000000000000000000000000000000000000000000000000608482015260a401610193565b61027f83836104bd565b505050565b60026102908133610467565b806102be57503360009081526020819052604090205460039060ff16818111156102bc576102bc610610565b145b6103305760405162461bcd60e51b815260206004820152602660248201527f416363657373526f6c65733a20726571756972656420726f6c65206e6f74206760448201527f72616e74656400000000000000000000000000000000000000000000000000006064820152608401610193565b600273ffffffffffffffffffffffffffffffffffffffff831660009081526020819052604090205460ff16600381111561036c5761036c610610565b14806103b15750600373ffffffffffffffffffffffffffffffffffffffff831660009081526020819052604090205460ff1660038111156103af576103af610610565b145b1561045a576103c1600333610467565b61045a5760405162461bcd60e51b8152602060048201526044602482018190527f416363657373526f6c65733a20746f207265766f6b652061646d696e206f7220908201527f686561642061646d696e20726f6c652c20686561642061646d696e207265717560648201527f6972656400000000000000000000000000000000000000000000000000000000608482015260a401610193565b61046382610569565b5050565b600082600381111561047b5761047b610610565b73ffffffffffffffffffffffffffffffffffffffff831660009081526020819052604090205460ff1660038111156104b5576104b5610610565b149392505050565b6104c78282610467565b6104635773ffffffffffffffffffffffffffffffffffffffff81166000908152602081905260409020805483919060ff1916600183600381111561050d5761050d610610565b02179055503373ffffffffffffffffffffffffffffffffffffffff821683600381111561053c5761053c610610565b6040517f570d3756e5b890fbf84c01fc2daf898fa7e95ae3ca9f1ed5edf012eacb5c6ce690600090a45050565b73ffffffffffffffffffffffffffffffffffffffff81166000818152602081905260408120805460ff191690553391906040517f5a8379f4a3380f87fd5924475f76a3471ac8d775668601653e3f9ef69a3dd27190600090a450565b803573ffffffffffffffffffffffffffffffffffffffff811681146105e957600080fd5b919050565b60006020828403121561060057600080fd5b610609826105c5565b9392505050565b7f4e487b7100000000000000000000000000000000000000000000000000000000600052602160045260246000fd5b602081016004831061067a577f4e487b7100000000000000000000000000000000000000000000000000000000600052602160045260246000fd5b91905290565b6000806040838503121561069357600080fd5b8235600481106106a257600080fd5b91506106b0602084016105c5565b9050925092905056fea26469706673582212203b1fa72817d316171a08a93573e78df0779add29bce4495c715d85529507d98464736f6c63430008110033",
  "devdoc": {
    "kind": "dev",
    "methods": {},
    "version": 1
  },
  "userdoc": {
    "kind": "user",
    "methods": {},
    "version": 1
  },
  "storageLayout": {
    "storage": [
      {
        "astId": 11586,
        "contract": "src/AccessRoles.sol:AccessRoles",
        "label": "_roles",
        "offset": 0,
        "slot": "0",
        "type": "t_mapping(t_address,t_enum(Roles)11579)"
      }
    ],
    "types": {
      "t_address": {
        "encoding": "inplace",
        "label": "address",
        "numberOfBytes": "20"
      },
      "t_enum(Roles)11579": {
        "encoding": "inplace",
        "label": "enum Roles",
        "numberOfBytes": "1"
      },
      "t_mapping(t_address,t_enum(Roles)11579)": {
        "encoding": "mapping",
        "key": "t_address",
        "label": "mapping(address => enum Roles)",
        "numberOfBytes": "32",
        "value": "t_enum(Roles)11579"
      }
    }
  }
}