{
  "address": "0xe1D3DCf83927CEDE0F4C9f6eD9b0ee57107709bF",
  "abi": [
    {
      "inputs": [
        {
          "internalType": "string",
          "name": "name_",
          "type": "string"
        },
        {
          "internalType": "string",
          "name": "symbol_",
          "type": "string"
        },
        {
          "internalType": "uint256",
          "name": "interestRateOneBps_",
          "type": "uint256"
        },
        {
          "internalType": "uint256",
          "name": "interestRateTwoBps_",
          "type": "uint256"
        },
        {
          "internalType": "uint256",
          "name": "interestRateThreeBps_",
          "type": "uint256"
        },
        {
          "internalType": "address",
          "name": "access_",
          "type": "address"
        },
        {
          "internalType": "address",
          "name": "kyc_",
          "type": "address"
        },
        {
          "internalType": "address",
          "name": "burn_",
          "type": "address"
        }
      ],
      "stateMutability": "nonpayable",
      "type": "constructor"
    },
    {
      "anonymous": false,
      "inputs": [
        {
          "indexed": true,
          "internalType": "address",
          "name": "owner",
          "type": "address"
        },
        {
          "indexed": true,
          "internalType": "address",
          "name": "spender",
          "type": "address"
        },
        {
          "indexed": false,
          "internalType": "uint256",
          "name": "value",
          "type": "uint256"
        }
      ],
      "name": "Approval",
      "type": "event"
    },
    {
      "anonymous": false,
      "inputs": [
        {
          "indexed": true,
          "internalType": "address",
          "name": "from",
          "type": "address"
        },
        {
          "indexed": true,
          "internalType": "address",
          "name": "to",
          "type": "address"
        },
        {
          "indexed": false,
          "internalType": "uint256",
          "name": "value",
          "type": "uint256"
        }
      ],
      "name": "Transfer",
      "type": "event"
    },
    {
      "inputs": [
        {
          "internalType": "address",
          "name": "",
          "type": "address"
        },
        {
          "internalType": "address",
          "name": "",
          "type": "address"
        }
      ],
      "name": "allowance",
      "outputs": [
        {
          "internalType": "uint256",
          "name": "",
          "type": "uint256"
        }
      ],
      "stateMutability": "pure",
      "type": "function"
    },
    {
      "inputs": [
        {
          "internalType": "address",
          "name": "",
          "type": "address"
        },
        {
          "internalType": "uint256",
          "name": "",
          "type": "uint256"
        }
      ],
      "name": "approve",
      "outputs": [
        {
          "internalType": "bool",
          "name": "",
          "type": "bool"
        }
      ],
      "stateMutability": "nonpayable",
      "type": "function"
    },
    {
      "inputs": [
        {
          "internalType": "address",
          "name": "account",
          "type": "address"
        }
      ],
      "name": "balanceOf",
      "outputs": [
        {
          "internalType": "uint256",
          "name": "",
          "type": "uint256"
        }
      ],
      "stateMutability": "view",
      "type": "function"
    },
    {
      "inputs": [
        {
          "internalType": "address",
          "name": "account",
          "type": "address"
        },
        {
          "internalType": "uint256",
          "name": "amount",
          "type": "uint256"
        },
        {
          "internalType": "bool",
          "name": "mintToken",
          "type": "bool"
        }
      ],
      "name": "burn",
      "outputs": [],
      "stateMutability": "nonpayable",
      "type": "function"
    },
    {
      "inputs": [],
      "name": "decimals",
      "outputs": [
        {
          "internalType": "uint8",
          "name": "",
          "type": "uint8"
        }
      ],
      "stateMutability": "view",
      "type": "function"
    },
    {
      "inputs": [
        {
          "internalType": "address",
          "name": "",
          "type": "address"
        },
        {
          "internalType": "uint256",
          "name": "",
          "type": "uint256"
        }
      ],
      "name": "decreaseAllowance",
      "outputs": [
        {
          "internalType": "bool",
          "name": "",
          "type": "bool"
        }
      ],
      "stateMutability": "nonpayable",
      "type": "function"
    },
    {
      "inputs": [
        {
          "internalType": "address",
          "name": "",
          "type": "address"
        },
        {
          "internalType": "uint256",
          "name": "",
          "type": "uint256"
        }
      ],
      "name": "increaseAllowance",
      "outputs": [
        {
          "internalType": "bool",
          "name": "",
          "type": "bool"
        }
      ],
      "stateMutability": "nonpayable",
      "type": "function"
    },
    {
      "inputs": [],
      "name": "interestRateOneBps",
      "outputs": [
        {
          "internalType": "uint256",
          "name": "",
          "type": "uint256"
        }
      ],
      "stateMutability": "view",
      "type": "function"
    },
    {
      "inputs": [],
      "name": "interestRateThreeBps",
      "outputs": [
        {
          "internalType": "uint256",
          "name": "",
          "type": "uint256"
        }
      ],
      "stateMutability": "view",
      "type": "function"
    },
    {
      "inputs": [],
      "name": "interestRateTwoBps",
      "outputs": [
        {
          "internalType": "uint256",
          "name": "",
          "type": "uint256"
        }
      ],
      "stateMutability": "view",
      "type": "function"
    },
    {
      "inputs": [
        {
          "internalType": "address",
          "name": "account",
          "type": "address"
        },
        {
          "internalType": "uint256",
          "name": "amount",
          "type": "uint256"
        }
      ],
      "name": "mint",
      "outputs": [],
      "stateMutability": "nonpayable",
      "type": "function"
    },
    {
      "inputs": [],
      "name": "name",
      "outputs": [
        {
          "internalType": "string",
          "name": "",
          "type": "string"
        }
      ],
      "stateMutability": "view",
      "type": "function"
    },
    {
      "inputs": [
        {
          "internalType": "address",
          "name": "access_",
          "type": "address"
        }
      ],
      "name": "setAccessControl",
      "outputs": [],
      "stateMutability": "nonpayable",
      "type": "function"
    },
    {
      "inputs": [
        {
          "internalType": "address",
          "name": "burn_",
          "type": "address"
        }
      ],
      "name": "setBurn",
      "outputs": [],
      "stateMutability": "nonpayable",
      "type": "function"
    },
    {
      "inputs": [
        {
          "internalType": "uint256",
          "name": "interestRateBps_",
          "type": "uint256"
        }
      ],
      "name": "setInterestRateOneBps",
      "outputs": [],
      "stateMutability": "nonpayable",
      "type": "function"
    },
    {
      "inputs": [
        {
          "internalType": "uint256",
          "name": "interestRateBps_",
          "type": "uint256"
        }
      ],
      "name": "setInterestRateThreeBps",
      "outputs": [],
      "stateMutability": "nonpayable",
      "type": "function"
    },
    {
      "inputs": [
        {
          "internalType": "uint256",
          "name": "interestRateBps_",
          "type": "uint256"
        }
      ],
      "name": "setInterestRateTwoBps",
      "outputs": [],
      "stateMutability": "nonpayable",
      "type": "function"
    },
    {
      "inputs": [
        {
          "internalType": "address",
          "name": "kyc_",
          "type": "address"
        }
      ],
      "name": "setKYC",
      "outputs": [],
      "stateMutability": "nonpayable",
      "type": "function"
    },
    {
      "inputs": [],
      "name": "symbol",
      "outputs": [
        {
          "internalType": "string",
          "name": "",
          "type": "string"
        }
      ],
      "stateMutability": "view",
      "type": "function"
    },
    {
      "inputs": [],
      "name": "totalSupply",
      "outputs": [
        {
          "internalType": "uint256",
          "name": "",
          "type": "uint256"
        }
      ],
      "stateMutability": "view",
      "type": "function"
    },
    {
      "inputs": [
        {
          "internalType": "address",
          "name": "to",
          "type": "address"
        },
        {
          "internalType": "uint256",
          "name": "amount",
          "type": "uint256"
        }
      ],
      "name": "transfer",
      "outputs": [
        {
          "internalType": "bool",
          "name": "",
          "type": "bool"
        }
      ],
      "stateMutability": "nonpayable",
      "type": "function"
    },
    {
      "inputs": [
        {
          "internalType": "address",
          "name": "from",
          "type": "address"
        },
        {
          "internalType": "address",
          "name": "to",
          "type": "address"
        },
        {
          "internalType": "uint256",
          "name": "amount",
          "type": "uint256"
        }
      ],
      "name": "transferFrom",
      "outputs": [
        {
          "internalType": "bool",
          "name": "",
          "type": "bool"
        }
      ],
      "stateMutability": "nonpayable",
      "type": "function"
    }
  ],
  "transactionHash": "0x6ba8c81152fe65438c85b220ba7bd5dba692ab2d1e932a5e94fe7558f0235a98",
  "args": [
    "PDE_Token",
    "PDE",
    500,
    200,
    70,
    "0x447228bD392f746EA2fDaa289bB37E7D2B1bE998",
    "0x0728baDd0Df3882f52Aa3Bd264e6520eb6Ce46Cc",
    "0xd47914419586bDfF06cF8aF854DB8f9515A8eb9F"
  ],
  "numDeployments": 1,
  "solcInputHash": "a63a87a75b3918c8cdc765e7d1c6793a",
  "bytecode": "0x60806040523480156200001157600080fd5b506040516200283a3803806200283a833981016040819052620000349162000190565b87876003620000448382620002de565b506004620000538282620002de565b505050600895909555600993909355600a91909155600580546001600160a01b039283166001600160a01b03199182161790915560068054938316938216939093179092556007805491909316911617905550620003aa9050565b634e487b7160e01b600052604160045260246000fd5b600082601f830112620000d657600080fd5b81516001600160401b0380821115620000f357620000f3620000ae565b604051601f8301601f19908116603f011681019082821181831017156200011e576200011e620000ae565b816040528381526020925086838588010111156200013b57600080fd5b600091505b838210156200015f578582018301518183018401529082019062000140565b600093810190920192909252949350505050565b80516001600160a01b03811681146200018b57600080fd5b919050565b600080600080600080600080610100898b031215620001ae57600080fd5b88516001600160401b0380821115620001c657600080fd5b620001d48c838d01620000c4565b995060208b0151915080821115620001eb57600080fd5b50620001fa8b828c01620000c4565b9750506040890151955060608901519450608089015193506200022060a08a0162000173565b92506200023060c08a0162000173565b91506200024060e08a0162000173565b90509295985092959890939650565b600181811c908216806200026457607f821691505b6020821081036200028557634e487b7160e01b600052602260045260246000fd5b50919050565b601f821115620002d957600081815260208120601f850160051c81016020861015620002b45750805b601f850160051c820191505b81811015620002d557828155600101620002c0565b5050505b505050565b81516001600160401b03811115620002fa57620002fa620000ae565b62000312816200030b84546200024f565b846200028b565b602080601f8311600181146200034a5760008415620003315750858301515b600019600386901b1c1916600185901b178555620002d5565b600085815260208120601f198616915b828110156200037b578886015182559484019460019091019084016200035a565b50858210156200039a5787850151600019600388901b60f8161c191681555b5050505050600190811b01905550565b61248080620003ba6000396000f3fe608060405234801561001057600080fd5b50600436106101825760003560e01c806370a08231116100d8578063aced73bd1161008c578063d1f0b9c011610066578063d1f0b9c0146102c1578063dd62ed3e146102d4578063e0a9918d146102e257600080fd5b8063aced73bd1461029e578063b5d9ab2d146102b1578063c0011ace146102b957600080fd5b806395d89b41116100bd57806395d89b4114610283578063a457c2d7146101a5578063a9059cbb1461028b57600080fd5b806370a082311461025d57806376fd4fdf1461027057600080fd5b806328f9e4b81161013a57806340c10f191161011457806340c10f1914610224578063483a83df1461023757806369c17a671461024a57600080fd5b806328f9e4b814610202578063313ce5671461021557806339509351146101a557600080fd5b806318160ddd1161016b57806318160ddd146101c857806319129e5a146101da57806323b872dd146101ef57600080fd5b806306fdde0314610187578063095ea7b3146101a5575b600080fd5b61018f6102ea565b60405161019c9190612138565b60405180910390f35b6101b86101b33660046121c0565b61037c565b604051901515815260200161019c565b6002545b60405190815260200161019c565b6101ed6101e83660046121ea565b610385565b005b6101b86101fd36600461220c565b610477565b6101ed610210366004612248565b610560565b6040516012815260200161019c565b6101ed6102323660046121c0565b610623565b6101ed6102453660046121ea565b6106ef565b6101ed610258366004612248565b6107dc565b6101cc61026b3660046121ea565b61089f565b6101ed61027e366004612272565b610bb9565b61018f6111c0565b6101b86102993660046121c0565b6111cf565b6101ed6102ac3660046121ea565b6111dd565b6008546101cc565b6009546101cc565b6101ed6102cf366004612248565b6112ca565b6101cc6101b33660046122b2565b600a546101cc565b6060600380546102f9906122e5565b80601f0160208091040260200160405190810160405280929190818152602001828054610325906122e5565b80156103725780601f1061034757610100808354040283529160200191610372565b820191906000526020600020905b81548152906001019060200180831161035557829003601f168201915b5050505050905090565b60005b92915050565b6005546001600160a01b0316639e97b8f66002336040518363ffffffff1660e01b81526004016103b692919061231f565b602060405180830381865afa1580156103d3573d6000803e3d6000fd5b505050506040513d601f19601f820116820180604052508101906103f79190612359565b6104485760405162461bcd60e51b815260206004820181905260248201527f45524332303a20726571756972656420726f6c65206e6f74206772616e74656460448201526064015b60405180910390fd5b6005805473ffffffffffffffffffffffffffffffffffffffff19166001600160a01b0392909216919091179055565b600554604051634f4bdc7b60e11b81526000916001600160a01b031690639e97b8f6906104ab90600290339060040161231f565b602060405180830381865afa1580156104c8573d6000803e3d6000fd5b505050506040513d601f19601f820116820180604052508101906104ec9190612359565b806104ff5750336001600160a01b038516145b61054b5760405162461bcd60e51b815260206004820181905260248201527f45524332303a20726571756972656420726f6c65206e6f74206772616e746564604482015260640161043f565b61055684848461138d565b5060019392505050565b6005546001600160a01b0316639e97b8f66002336040518363ffffffff1660e01b815260040161059192919061231f565b602060405180830381865afa1580156105ae573d6000803e3d6000fd5b505050506040513d601f19601f820116820180604052508101906105d29190612359565b61061e5760405162461bcd60e51b815260206004820181905260248201527f45524332303a20726571756972656420726f6c65206e6f74206772616e746564604482015260640161043f565b600a55565b6005546001600160a01b0316639e97b8f66002336040518363ffffffff1660e01b815260040161065492919061231f565b602060405180830381865afa158015610671573d6000803e3d6000fd5b505050506040513d601f19601f820116820180604052508101906106959190612359565b6106e15760405162461bcd60e51b815260206004820181905260248201527f45524332303a20726571756972656420726f6c65206e6f74206772616e746564604482015260640161043f565b6106eb8282611978565b5050565b6005546001600160a01b0316639e97b8f66002336040518363ffffffff1660e01b815260040161072092919061231f565b602060405180830381865afa15801561073d573d6000803e3d6000fd5b505050506040513d601f19601f820116820180604052508101906107619190612359565b6107ad5760405162461bcd60e51b815260206004820181905260248201527f45524332303a20726571756972656420726f6c65206e6f74206772616e746564604482015260640161043f565b6006805473ffffffffffffffffffffffffffffffffffffffff19166001600160a01b0392909216919091179055565b6005546001600160a01b0316639e97b8f66002336040518363ffffffff1660e01b815260040161080d92919061231f565b602060405180830381865afa15801561082a573d6000803e3d6000fd5b505050506040513d601f19601f8201168201806040525081019061084e9190612359565b61089a5760405162461bcd60e51b815260206004820181905260248201527f45524332303a20726571756972656420726f6c65206e6f74206772616e746564604482015260640161043f565b600955565b600554604051634f4bdc7b60e11b81526000916001600160a01b031690639e97b8f6906108d390600290869060040161231f565b602060405180830381865afa1580156108f0573d6000803e3d6000fd5b505050506040513d601f19601f820116820180604052508101906109149190612359565b806109a357506006546040517f70a082310000000000000000000000000000000000000000000000000000000081526001600160a01b038481166004830152909116906370a0823190602401602060405180830381865afa15801561097d573d6000803e3d6000fd5b505050506040513d601f19601f820116820180604052508101906109a19190612376565b155b156109c6576001600160a01b03821660009081526020819052604090205461037f565b6001600160a01b0382166000908152600b6020526040812054908080805b84811015610b8b576001600160a01b0387166000908152600b60205260409020805482908110610a1657610a1661238f565b906000526020600020906005020160000154925062015180600b6000896001600160a01b03166001600160a01b031681526020019081526020016000208281548110610a6457610a6461238f565b90600052602060002090600502016004015442610a8191906123bb565b610a8b91906123ce565b9150610b6f83600b60008a6001600160a01b03166001600160a01b031681526020019081526020016000208381548110610ac757610ac761238f565b906000526020600020906005020160010154600b60008b6001600160a01b03166001600160a01b031681526020019081526020016000208481548110610b0f57610b0f61238f565b906000526020600020906005020160020154600b60008c6001600160a01b03166001600160a01b031681526020019081526020016000208581548110610b5757610b5761238f565b90600052602060002090600502016003015486611a3f565b610b7990856123f0565b9350610b8481612403565b90506109e4565b506001600160a01b038616600090815260208190526040902054610baf90846123f0565b9695505050505050565b6001600160a01b038316610c355760405162461bcd60e51b815260206004820152602160248201527f45524332303a206275726e2066726f6d20746865207a65726f2061646472657360448201527f7300000000000000000000000000000000000000000000000000000000000000606482015260840161043f565b6005546001600160a01b0316639e97b8f66002336040518363ffffffff1660e01b8152600401610c6692919061231f565b602060405180830381865afa158015610c83573d6000803e3d6000fd5b505050506040513d601f19601f82011682018060405250810190610ca79190612359565b610cf35760405162461bcd60e51b815260206004820181905260248201527f45524332303a20726571756972656420726f6c65206e6f74206772616e746564604482015260640161043f565b8015610d79576007546040517fa14481940000000000000000000000000000000000000000000000000000000081526001600160a01b038581166004830152602482018590529091169063a144819490604401600060405180830381600087803b158015610d6057600080fd5b505af1158015610d74573d6000803e3d6000fd5b505050505b600554604051634f4bdc7b60e11b81526001600160a01b0390911690639e97b8f690610dac90600290879060040161231f565b602060405180830381865afa158015610dc9573d6000803e3d6000fd5b505050506040513d601f19601f82011682018060405250810190610ded9190612359565b80610e0e57506001600160a01b0383166000908152600b6020526040902054155b15610e2257610e1d8383611ca4565b505050565b816000610e2e8561089f565b905083811015610ea65760405162461bcd60e51b815260206004820152602e60248201527f5044453a204275726e20616d6f756e7420657863656564732062616c616e636560448201527f207769746820696e746572657374000000000000000000000000000000000000606482015260840161043f565b6001600160a01b0385166000908152600b60205260408120549080825b8015611199576001600160a01b0389166000908152600b60205260409020610eec6001836123bb565b81548110610efc57610efc61238f565b600091825260208083206005909202909101546001600160a01b038c168352600b90915260409091209093506201518090610f386001846123bb565b81548110610f4857610f4861238f565b90600052602060002090600502016004015442610f6591906123bb565b610f6f91906123ce565b6001600160a01b038a166000908152600b60205260409020909250611039908490610f9b6001856123bb565b81548110610fab57610fab61238f565b6000918252602080832060016005909302018201546001600160a01b038f168452600b909152604090922090610fe190866123bb565b81548110610ff157610ff161238f565b60009182526020808320600260059093020191909101546001600160a01b038f168352600b90915260409091206110296001876123bb565b81548110610b5757610b5761238f565b92508583116110af5761104c83876123bb565b6001600160a01b038a166000908152600b60205260409020805491975090806110775761107761241d565b600082815260208120600560001990930192830201818155600181018290556002810182905560038101829055600401559055611189565b6001600160a01b0389166000908152600b602052604081206110d26001846123bb565b815481106110e2576110e261238f565b600091825260209091206005909102015461110185633b9aca00612433565b61110b91906123ce565b90508061111c88633b9aca00612433565b61112691906123ce565b6001600160a01b038b166000908152600b602052604090206111496001856123bb565b815481106111595761115961238f565b9060005260206000209060050201600001600082825461117991906123bb565b9091555060009950611199915050565b61119281612403565b9050610ec3565b5086156111aa576111aa8886611ca4565b6111b688600089611e10565b5050505050505050565b6060600480546102f9906122e5565b60003361055681858561138d565b6005546001600160a01b0316639e97b8f66002336040518363ffffffff1660e01b815260040161120e92919061231f565b602060405180830381865afa15801561122b573d6000803e3d6000fd5b505050506040513d601f19601f8201168201806040525081019061124f9190612359565b61129b5760405162461bcd60e51b815260206004820181905260248201527f45524332303a20726571756972656420726f6c65206e6f74206772616e746564604482015260640161043f565b6007805473ffffffffffffffffffffffffffffffffffffffff19166001600160a01b0392909216919091179055565b6005546001600160a01b0316639e97b8f66002336040518363ffffffff1660e01b81526004016112fb92919061231f565b602060405180830381865afa158015611318573d6000803e3d6000fd5b505050506040513d601f19601f8201168201806040525081019061133c9190612359565b6113885760405162461bcd60e51b815260206004820181905260248201527f45524332303a20726571756972656420726f6c65206e6f74206772616e746564604482015260640161043f565b600855565b6001600160a01b0383166114095760405162461bcd60e51b815260206004820152602560248201527f45524332303a207472616e736665722066726f6d20746865207a65726f20616460448201527f6472657373000000000000000000000000000000000000000000000000000000606482015260840161043f565b6001600160a01b0382166114855760405162461bcd60e51b815260206004820152602360248201527f45524332303a207472616e7366657220746f20746865207a65726f206164647260448201527f6573730000000000000000000000000000000000000000000000000000000000606482015260840161043f565b806000036114d55760405162461bcd60e51b815260206004820152601e60248201527f45524332303a207472616e7366657220616d6f756e74206973207a65726f0000604482015260640161043f565b600554604051634f4bdc7b60e11b81526001600160a01b0390911690639e97b8f69061150890600290879060040161231f565b602060405180830381865afa158015611525573d6000803e3d6000fd5b505050506040513d601f19601f820116820180604052508101906115499190612359565b801561156f575061156481690a968163f0a57b4000006123f0565b61156d8461089f565b105b1561159f5761159f836115818561089f565b61159584690a968163f0a57b4000006123f0565b61023291906123bb565b60006115aa8461089f565b9050818110156116225760405162461bcd60e51b815260206004820152603260248201527f5044453a205472616e7366657220616d6f756e7420657863656564732062616c60448201527f616e6365207769746820696e7465726573740000000000000000000000000000606482015260840161043f565b6001600160a01b0384166000908152600b60205260408120549080825b8015611952576001600160a01b0388166000908152600b602052604090206116686001836123bb565b815481106116785761167861238f565b600091825260208083206005909202909101546001600160a01b038b168352600b909152604090912090935062015180906116b46001846123bb565b815481106116c4576116c461238f565b906000526020600020906005020160040154426116e191906123bb565b6116eb91906123ce565b6001600160a01b0389166000908152600b602052604090209092506117a59084906117176001856123bb565b815481106117275761172761238f565b6000918252602080832060016005909302018201546001600160a01b038e168452600b90915260409092209061175d90866123bb565b8154811061176d5761176d61238f565b60009182526020808320600260059093020191909101546001600160a01b038e168352600b90915260409091206110296001876123bb565b925085831161181b576117b883876123bb565b6001600160a01b0389166000908152600b60205260409020805491975090806117e3576117e361241d565b600082815260208120600560001990930192830201818155600181018290556002810182905560038101829055600401559055611942565b866001600160a01b0316886001600160a01b03167fddf252ad1be2c89b69c2b068fc378daa952ba7f163c4a11628f55a4df523b3ef8860405161186091815260200190565b60405180910390a36001600160a01b0388166000908152600b6020526040812061188b6001846123bb565b8154811061189b5761189b61238f565b60009182526020909120600590910201546118ba85633b9aca00612433565b6118c491906123ce565b9050806118d588633b9aca00612433565b6118df91906123ce565b6001600160a01b038a166000908152600b602052604090206119026001856123bb565b815481106119125761191261238f565b9060005260206000209060050201600001600082825461193291906123bb565b9091555060009750611952915050565b61194b81612403565b905061163f565b50841561196457611964878787611f3f565b61196f878787611e10565b50505050505050565b6001600160a01b0382166119ce5760405162461bcd60e51b815260206004820152601f60248201527f45524332303a206d696e7420746f20746865207a65726f206164647265737300604482015260640161043f565b80600260008282546119e091906123f0565b90915550506001600160a01b038216600081815260208181526040808320805486019055518481527fddf252ad1be2c89b69c2b068fc378daa952ba7f163c4a11628f55a4df523b3ef910160405180910390a36106eb60008383611e10565b6000601e8211611a8d5760005b82811015611a8757612710611a618789612433565b611a6b91906123ce565b611a7590886123f0565b9650611a8081612403565b9050611a4c565b50611c9a565b603c8211611b135760005b601e811015611ad457612710611aae8789612433565b611ab891906123ce565b611ac290886123f0565b9650611acd81612403565b9050611a98565b50601e5b82811015611a8757612710611aed8689612433565b611af791906123ce565b611b0190886123f0565b9650611b0c81612403565b9050611ad8565b605a8211611bd95760005b601e811015611b5a57612710611b348789612433565b611b3e91906123ce565b611b4890886123f0565b9650611b5381612403565b9050611b1e565b50601e5b603c811015611b9a57612710611b748689612433565b611b7e91906123ce565b611b8890886123f0565b9650611b9381612403565b9050611b5e565b50603c5b82811015611a8757612710611bb38589612433565b611bbd91906123ce565b611bc790886123f0565b9650611bd281612403565b9050611b9e565b60005b601e811015611c1857612710611bf28789612433565b611bfc91906123ce565b611c0690886123f0565b9650611c1181612403565b9050611bdc565b50601e5b603c811015611c5857612710611c328689612433565b611c3c91906123ce565b611c4690886123f0565b9650611c5181612403565b9050611c1c565b50603c5b605a811015611c9857612710611c728589612433565b611c7c91906123ce565b611c8690886123f0565b9650611c9181612403565b9050611c5c565b505b5093949350505050565b6001600160a01b038216611d205760405162461bcd60e51b815260206004820152602160248201527f45524332303a206275726e2066726f6d20746865207a65726f2061646472657360448201527f7300000000000000000000000000000000000000000000000000000000000000606482015260840161043f565b6001600160a01b03821660009081526020819052604090205481811015611daf5760405162461bcd60e51b815260206004820152602260248201527f45524332303a206275726e20616d6f756e7420657863656564732062616c616e60448201527f6365000000000000000000000000000000000000000000000000000000000000606482015260840161043f565b6001600160a01b0383166000818152602081815260408083208686039055600280548790039055518581529192917fddf252ad1be2c89b69c2b068fc378daa952ba7f163c4a11628f55a4df523b3ef910160405180910390a3610e1d836000845b6001600160a01b038216611e2357505050565b6006546040517f70a082310000000000000000000000000000000000000000000000000000000081526001600160a01b03848116600483015260009216906370a0823190602401602060405180830381865afa158015611e87573d6000803e3d6000fd5b505050506040513d601f19601f82011682018060405250810190611eab9190612376565b1115610e1d576001600160a01b0382166000908152600b60209081526040808320815160a081018352858152600854818501908152600954938201938452600a5460608301908152426080840190815284546001818101875595895296909720925160059096029092019485555191840191909155905160028301555160038201559051600490910155610e1d8282611ca4565b6001600160a01b038316611fbb5760405162461bcd60e51b815260206004820152602560248201527f45524332303a207472616e736665722066726f6d20746865207a65726f20616460448201527f6472657373000000000000000000000000000000000000000000000000000000606482015260840161043f565b6001600160a01b0382166120375760405162461bcd60e51b815260206004820152602360248201527f45524332303a207472616e7366657220746f20746865207a65726f206164647260448201527f6573730000000000000000000000000000000000000000000000000000000000606482015260840161043f565b6001600160a01b038316600090815260208190526040902054818110156120c65760405162461bcd60e51b815260206004820152602660248201527f45524332303a207472616e7366657220616d6f756e742065786365656473206260448201527f616c616e63650000000000000000000000000000000000000000000000000000606482015260840161043f565b6001600160a01b03848116600081815260208181526040808320878703905593871680835291849020805487019055925185815290927fddf252ad1be2c89b69c2b068fc378daa952ba7f163c4a11628f55a4df523b3ef910160405180910390a3612132848484611e10565b50505050565b600060208083528351808285015260005b8181101561216557858101830151858201604001528201612149565b5060006040828601015260407fffffffffffffffffffffffffffffffffffffffffffffffffffffffffffffffe0601f8301168501019250505092915050565b80356001600160a01b03811681146121bb57600080fd5b919050565b600080604083850312156121d357600080fd5b6121dc836121a4565b946020939093013593505050565b6000602082840312156121fc57600080fd5b612205826121a4565b9392505050565b60008060006060848603121561222157600080fd5b61222a846121a4565b9250612238602085016121a4565b9150604084013590509250925092565b60006020828403121561225a57600080fd5b5035919050565b801515811461226f57600080fd5b50565b60008060006060848603121561228757600080fd5b612290846121a4565b92506020840135915060408401356122a781612261565b809150509250925092565b600080604083850312156122c557600080fd5b6122ce836121a4565b91506122dc602084016121a4565b90509250929050565b600181811c908216806122f957607f821691505b60208210810361231957634e487b7160e01b600052602260045260246000fd5b50919050565b604081016003841061234157634e487b7160e01b600052602160045260246000fd5b9281526001600160a01b039190911660209091015290565b60006020828403121561236b57600080fd5b815161220581612261565b60006020828403121561238857600080fd5b5051919050565b634e487b7160e01b600052603260045260246000fd5b634e487b7160e01b600052601160045260246000fd5b8181038181111561037f5761037f6123a5565b6000826123eb57634e487b7160e01b600052601260045260246000fd5b500490565b8082018082111561037f5761037f6123a5565b60006000198203612416576124166123a5565b5060010190565b634e487b7160e01b600052603160045260246000fd5b808202811582820484141761037f5761037f6123a556fea264697066735822122017995f16e003d1368169b1b2535769632440d2251265c48297e0aa7a622cae7e64736f6c63430008110033",
  "devdoc": {
    "kind": "dev",
    "methods": {
      "balanceOf(address)": {
        "details": "See {IERC20-balanceOf}."
      },
      "decimals()": {
        "details": "Returns the number of decimals used to get its user representation. For example, if `decimals` equals `2`, a balance of `505` tokens should be displayed to a user as `5.05` (`505 / 10 ** 2`). Tokens usually opt for a value of 18, imitating the relationship between Ether and Wei. This is the default value returned by this function, unless it's overridden. NOTE: This information is only used for _display_ purposes: it in no way affects any of the arithmetic of the contract, including {IERC20-balanceOf} and {IERC20-transfer}."
      },
      "name()": {
        "details": "Returns the name of the token."
      },
      "symbol()": {
        "details": "Returns the symbol of the token, usually a shorter version of the name."
      },
      "totalSupply()": {
        "details": "See {IERC20-totalSupply}."
      },
      "transfer(address,uint256)": {
        "details": "See {IERC20-transfer}. Requirements: - `to` cannot be the zero address. - the caller must have a balance of at least `amount`."
      },
      "transferFrom(address,address,uint256)": {
        "details": "See {IERC20-transferFrom}. Emits an {Approval} event indicating the updated allowance. This is not required by the EIP. See the note at the beginning of {ERC20}. NOTE: Does not update the allowance if the current allowance is the maximum `uint256`. Requirements: - `from` and `to` cannot be the zero address. - `from` must have a balance of at least `amount`. - the caller must have allowance for ``from``'s tokens of at least `amount`."
      }
    },
    "version": 1
  },
  "userdoc": {
    "kind": "user",
    "methods": {},
    "version": 1
  },
  "storageLayout": {
    "storage": [
      {
        "astId": 128,
        "contract": "src/ERC20_PDE.sol:ERC20_PDE",
        "label": "_balances",
        "offset": 0,
        "slot": "0",
        "type": "t_mapping(t_address,t_uint256)"
      },
      {
        "astId": 134,
        "contract": "src/ERC20_PDE.sol:ERC20_PDE",
        "label": "_allowances",
        "offset": 0,
        "slot": "1",
        "type": "t_mapping(t_address,t_mapping(t_address,t_uint256))"
      },
      {
        "astId": 136,
        "contract": "src/ERC20_PDE.sol:ERC20_PDE",
        "label": "_totalSupply",
        "offset": 0,
        "slot": "2",
        "type": "t_uint256"
      },
      {
        "astId": 138,
        "contract": "src/ERC20_PDE.sol:ERC20_PDE",
        "label": "_name",
        "offset": 0,
        "slot": "3",
        "type": "t_string_storage"
      },
      {
        "astId": 140,
        "contract": "src/ERC20_PDE.sol:ERC20_PDE",
        "label": "_symbol",
        "offset": 0,
        "slot": "4",
        "type": "t_string_storage"
      },
      {
        "astId": 3671,
        "contract": "src/ERC20_PDE.sol:ERC20_PDE",
        "label": "_access",
        "offset": 0,
        "slot": "5",
        "type": "t_contract(AccessRoles)3660"
      },
      {
        "astId": 3674,
        "contract": "src/ERC20_PDE.sol:ERC20_PDE",
        "label": "_erc721_kyc",
        "offset": 0,
        "slot": "6",
        "type": "t_contract(ERC721_KYC)5508"
      },
      {
        "astId": 3677,
        "contract": "src/ERC20_PDE.sol:ERC20_PDE",
        "label": "_erc721_burn",
        "offset": 0,
        "slot": "7",
        "type": "t_contract(ERC721_Burn)5183"
      },
      {
        "astId": 3679,
        "contract": "src/ERC20_PDE.sol:ERC20_PDE",
        "label": "_interestRateOneBps",
        "offset": 0,
        "slot": "8",
        "type": "t_uint256"
      },
      {
        "astId": 3681,
        "contract": "src/ERC20_PDE.sol:ERC20_PDE",
        "label": "_interestRateTwoBps",
        "offset": 0,
        "slot": "9",
        "type": "t_uint256"
      },
      {
        "astId": 3683,
        "contract": "src/ERC20_PDE.sol:ERC20_PDE",
        "label": "_interestRateThreeBps",
        "offset": 0,
        "slot": "10",
        "type": "t_uint256"
      },
      {
        "astId": 3700,
        "contract": "src/ERC20_PDE.sol:ERC20_PDE",
        "label": "_receipts",
        "offset": 0,
        "slot": "11",
        "type": "t_mapping(t_address,t_array(t_struct(Receipt)3694_storage)dyn_storage)"
      }
    ],
    "types": {
      "t_address": {
        "encoding": "inplace",
        "label": "address",
        "numberOfBytes": "20"
      },
      "t_array(t_struct(Receipt)3694_storage)dyn_storage": {
        "base": "t_struct(Receipt)3694_storage",
        "encoding": "dynamic_array",
        "label": "struct ERC20_PDE.Receipt[]",
        "numberOfBytes": "32"
      },
      "t_contract(AccessRoles)3660": {
        "encoding": "inplace",
        "label": "contract AccessRoles",
        "numberOfBytes": "20"
      },
      "t_contract(ERC721_Burn)5183": {
        "encoding": "inplace",
        "label": "contract ERC721_Burn",
        "numberOfBytes": "20"
      },
      "t_contract(ERC721_KYC)5508": {
        "encoding": "inplace",
        "label": "contract ERC721_KYC",
        "numberOfBytes": "20"
      },
      "t_mapping(t_address,t_array(t_struct(Receipt)3694_storage)dyn_storage)": {
        "encoding": "mapping",
        "key": "t_address",
        "label": "mapping(address => struct ERC20_PDE.Receipt[])",
        "numberOfBytes": "32",
        "value": "t_array(t_struct(Receipt)3694_storage)dyn_storage"
      },
      "t_mapping(t_address,t_mapping(t_address,t_uint256))": {
        "encoding": "mapping",
        "key": "t_address",
        "label": "mapping(address => mapping(address => uint256))",
        "numberOfBytes": "32",
        "value": "t_mapping(t_address,t_uint256)"
      },
      "t_mapping(t_address,t_uint256)": {
        "encoding": "mapping",
        "key": "t_address",
        "label": "mapping(address => uint256)",
        "numberOfBytes": "32",
        "value": "t_uint256"
      },
      "t_string_storage": {
        "encoding": "bytes",
        "label": "string",
        "numberOfBytes": "32"
      },
      "t_struct(Receipt)3694_storage": {
        "encoding": "inplace",
        "label": "struct ERC20_PDE.Receipt",
        "members": [
          {
            "astId": 3685,
            "contract": "src/ERC20_PDE.sol:ERC20_PDE",
            "label": "tokenAmount",
            "offset": 0,
            "slot": "0",
            "type": "t_uint256"
          },
          {
            "astId": 3687,
            "contract": "src/ERC20_PDE.sol:ERC20_PDE",
            "label": "interestRateOne",
            "offset": 0,
            "slot": "1",
            "type": "t_uint256"
          },
          {
            "astId": 3689,
            "contract": "src/ERC20_PDE.sol:ERC20_PDE",
            "label": "interestRateTwo",
            "offset": 0,
            "slot": "2",
            "type": "t_uint256"
          },
          {
            "astId": 3691,
            "contract": "src/ERC20_PDE.sol:ERC20_PDE",
            "label": "interestRateThree",
            "offset": 0,
            "slot": "3",
            "type": "t_uint256"
          },
          {
            "astId": 3693,
            "contract": "src/ERC20_PDE.sol:ERC20_PDE",
            "label": "timestamp",
            "offset": 0,
            "slot": "4",
            "type": "t_uint256"
          }
        ],
        "numberOfBytes": "160"
      },
      "t_uint256": {
        "encoding": "inplace",
        "label": "uint256",
        "numberOfBytes": "32"
      }
    }
  }
}