{
  "address": "0x8666FFc88698D2B3c557d5c39607952efF6a3743",
  "abi": [
    {
      "inputs": [
        {
          "internalType": "string",
          "name": "name_",
          "type": "string"
        },
        {
          "internalType": "string",
          "name": "symbol_",
          "type": "string"
        },
        {
          "internalType": "address",
          "name": "access_",
          "type": "address"
        }
      ],
      "stateMutability": "nonpayable",
      "type": "constructor"
    },
    {
      "anonymous": false,
      "inputs": [
        {
          "indexed": true,
          "internalType": "address",
          "name": "owner",
          "type": "address"
        },
        {
          "indexed": true,
          "internalType": "address",
          "name": "approved",
          "type": "address"
        },
        {
          "indexed": true,
          "internalType": "uint256",
          "name": "tokenId",
          "type": "uint256"
        }
      ],
      "name": "Approval",
      "type": "event"
    },
    {
      "anonymous": false,
      "inputs": [
        {
          "indexed": true,
          "internalType": "address",
          "name": "owner",
          "type": "address"
        },
        {
          "indexed": true,
          "internalType": "address",
          "name": "operator",
          "type": "address"
        },
        {
          "indexed": false,
          "internalType": "bool",
          "name": "approved",
          "type": "bool"
        }
      ],
      "name": "ApprovalForAll",
      "type": "event"
    },
    {
      "anonymous": false,
      "inputs": [
        {
          "indexed": true,
          "internalType": "address",
          "name": "from",
          "type": "address"
        },
        {
          "indexed": true,
          "internalType": "address",
          "name": "to",
          "type": "address"
        },
        {
          "indexed": true,
          "internalType": "uint256",
          "name": "tokenId",
          "type": "uint256"
        }
      ],
      "name": "Transfer",
      "type": "event"
    },
    {
      "inputs": [
        {
          "internalType": "address",
          "name": "to",
          "type": "address"
        },
        {
          "internalType": "uint256",
          "name": "tokenId",
          "type": "uint256"
        }
      ],
      "name": "approve",
      "outputs": [],
      "stateMutability": "nonpayable",
      "type": "function"
    },
    {
      "inputs": [
        {
          "internalType": "address",
          "name": "owner",
          "type": "address"
        }
      ],
      "name": "balanceOf",
      "outputs": [
        {
          "internalType": "uint256",
          "name": "",
          "type": "uint256"
        }
      ],
      "stateMutability": "view",
      "type": "function"
    },
    {
      "inputs": [
        {
          "internalType": "uint256",
          "name": "tokenId",
          "type": "uint256"
        }
      ],
      "name": "burn",
      "outputs": [],
      "stateMutability": "nonpayable",
      "type": "function"
    },
    {
      "inputs": [
        {
          "internalType": "uint256",
          "name": "",
          "type": "uint256"
        }
      ],
      "name": "getApproved",
      "outputs": [
        {
          "internalType": "address",
          "name": "",
          "type": "address"
        }
      ],
      "stateMutability": "view",
      "type": "function"
    },
    {
      "inputs": [
        {
          "internalType": "address",
          "name": "",
          "type": "address"
        },
        {
          "internalType": "address",
          "name": "",
          "type": "address"
        }
      ],
      "name": "isApprovedForAll",
      "outputs": [
        {
          "internalType": "bool",
          "name": "",
          "type": "bool"
        }
      ],
      "stateMutability": "view",
      "type": "function"
    },
    {
      "inputs": [],
      "name": "name",
      "outputs": [
        {
          "internalType": "string",
          "name": "",
          "type": "string"
        }
      ],
      "stateMutability": "view",
      "type": "function"
    },
    {
      "inputs": [
        {
          "internalType": "uint256",
          "name": "tokenId",
          "type": "uint256"
        }
      ],
      "name": "ownerOf",
      "outputs": [
        {
          "internalType": "address",
          "name": "",
          "type": "address"
        }
      ],
      "stateMutability": "view",
      "type": "function"
    },
    {
      "inputs": [
        {
          "internalType": "address",
          "name": "to",
          "type": "address"
        }
      ],
      "name": "safeMint",
      "outputs": [],
      "stateMutability": "nonpayable",
      "type": "function"
    },
    {
      "inputs": [
        {
          "internalType": "address",
          "name": "from",
          "type": "address"
        },
        {
          "internalType": "address",
          "name": "to",
          "type": "address"
        },
        {
          "internalType": "uint256",
          "name": "tokenId",
          "type": "uint256"
        }
      ],
      "name": "safeTransferFrom",
      "outputs": [],
      "stateMutability": "nonpayable",
      "type": "function"
    },
    {
      "inputs": [
        {
          "internalType": "address",
          "name": "from",
          "type": "address"
        },
        {
          "internalType": "address",
          "name": "to",
          "type": "address"
        },
        {
          "internalType": "uint256",
          "name": "tokenId",
          "type": "uint256"
        },
        {
          "internalType": "bytes",
          "name": "data",
          "type": "bytes"
        }
      ],
      "name": "safeTransferFrom",
      "outputs": [],
      "stateMutability": "nonpayable",
      "type": "function"
    },
    {
      "inputs": [
        {
          "internalType": "address",
          "name": "access_",
          "type": "address"
        }
      ],
      "name": "setAccessControl",
      "outputs": [],
      "stateMutability": "nonpayable",
      "type": "function"
    },
    {
      "inputs": [
        {
          "internalType": "address",
          "name": "",
          "type": "address"
        },
        {
          "internalType": "bool",
          "name": "",
          "type": "bool"
        }
      ],
      "name": "setApprovalForAll",
      "outputs": [],
      "stateMutability": "nonpayable",
      "type": "function"
    },
    {
      "inputs": [
        {
          "internalType": "string",
          "name": "defaultTokenURI_",
          "type": "string"
        }
      ],
      "name": "setDefaultTokenURI",
      "outputs": [],
      "stateMutability": "nonpayable",
      "type": "function"
    },
    {
      "inputs": [
        {
          "internalType": "uint256",
          "name": "tokenId",
          "type": "uint256"
        },
        {
          "internalType": "string",
          "name": "_tokenURI",
          "type": "string"
        }
      ],
      "name": "setTokenURI",
      "outputs": [],
      "stateMutability": "nonpayable",
      "type": "function"
    },
    {
      "inputs": [
        {
          "internalType": "bytes4",
          "name": "interfaceId",
          "type": "bytes4"
        }
      ],
      "name": "supportsInterface",
      "outputs": [
        {
          "internalType": "bool",
          "name": "",
          "type": "bool"
        }
      ],
      "stateMutability": "view",
      "type": "function"
    },
    {
      "inputs": [],
      "name": "symbol",
      "outputs": [
        {
          "internalType": "string",
          "name": "",
          "type": "string"
        }
      ],
      "stateMutability": "view",
      "type": "function"
    },
    {
      "inputs": [
        {
          "internalType": "uint256",
          "name": "tokenId",
          "type": "uint256"
        }
      ],
      "name": "tokenURI",
      "outputs": [
        {
          "internalType": "string",
          "name": "",
          "type": "string"
        }
      ],
      "stateMutability": "view",
      "type": "function"
    },
    {
      "inputs": [
        {
          "internalType": "address",
          "name": "from",
          "type": "address"
        },
        {
          "internalType": "address",
          "name": "to",
          "type": "address"
        },
        {
          "internalType": "uint256",
          "name": "tokenId",
          "type": "uint256"
        }
      ],
      "name": "transferFrom",
      "outputs": [],
      "stateMutability": "nonpayable",
      "type": "function"
    }
  ],
  "transactionHash": "0x51a7c69ab2e0209755481cf613f6179cb188dbe8c4286a49a36c412331d393fd",
  "args": [
    "PDE_KYC",
    "KYC",
    "0x61E59b638725Af95577eCEe4B45446bCF06AaDB8"
  ],
  "numDeployments": 2,
  "solcInputHash": "98c64c837d2cb3570700a0cd23775576",
  "bytecode": "0x60806040523480156200001157600080fd5b5060405162001f3d38038062001f3d833981016040819052620000349162000145565b8282600062000044838262000261565b50600162000053828262000261565b5050600680546001600160a01b0319166001600160a01b039390931692909217909155506200032d915050565b634e487b7160e01b600052604160045260246000fd5b600082601f830112620000a857600080fd5b81516001600160401b0380821115620000c557620000c562000080565b604051601f8301601f19908116603f01168101908282118183101715620000f057620000f062000080565b816040528381526020925086838588010111156200010d57600080fd5b600091505b8382101562000131578582018301518183018401529082019062000112565b600093810190920192909252949350505050565b6000806000606084860312156200015b57600080fd5b83516001600160401b03808211156200017357600080fd5b620001818783880162000096565b945060208601519150808211156200019857600080fd5b50620001a78682870162000096565b604086015190935090506001600160a01b0381168114620001c757600080fd5b809150509250925092565b600181811c90821680620001e757607f821691505b6020821081036200020857634e487b7160e01b600052602260045260246000fd5b50919050565b601f8211156200025c57600081815260208120601f850160051c81016020861015620002375750805b601f850160051c820191505b81811015620002585782815560010162000243565b5050505b505050565b81516001600160401b038111156200027d576200027d62000080565b62000295816200028e8454620001d2565b846200020e565b602080601f831160018114620002cd5760008415620002b45750858301515b600019600386901b1c1916600185901b17855562000258565b600085815260208120601f198616915b82811015620002fe57888601518255948401946001909101908401620002dd565b50858210156200031d5787850151600019600388901b60f8161c191681555b5050505050600190811b01905550565b611c00806200033d6000396000f3fe608060405234801561001057600080fd5b50600436106101365760003560e01c806342966c68116100b2578063a125c82411610081578063b88d4fde11610066578063b88d4fde14610287578063c87b56dd1461029a578063e985e9c5146102ad57600080fd5b8063a125c82414610266578063a22cb4651461027957600080fd5b806342966c68146102175780636352211e1461022a57806370a082311461023d57806395d89b411461025e57600080fd5b8063162094c41161010957806323b872dd116100ee57806323b872dd146101de57806340d097c3146101f157806342842e0e1461020457600080fd5b8063162094c4146101b857806319129e5a146101cb57600080fd5b806301ffc9a71461013b57806306fdde0314610163578063081812fc14610178578063095ea7b3146101a4575b600080fd5b61014e6101493660046115e5565b6102c3565b60405190151581526020015b60405180910390f35b61016b6103a8565b60405161015a9190611659565b61018c61018636600461166c565b50600090565b6040516001600160a01b03909116815260200161015a565b6101b66101b23660046116a1565b5050565b005b6101b66101c6366004611777565b61043a565b6101b66101d93660046117be565b6105a7565b6101b66101ec3660046117d9565b61069e565b6101b66101ff3660046117be565b610771565b6101b66102123660046117d9565b61085b565b6101b661022536600461166c565b61093e565b61018c61023836600461166c565b610a12565b61025061024b3660046117be565b610a77565b60405190815260200161015a565b61016b610b11565b6101b6610274366004611815565b610b20565b6101b66101b2366004611858565b6101b661029536600461188f565b610bf4565b61016b6102a836600461166c565b610cce565b61014e6102bb36600461190b565b600092915050565b60007fffffffff0000000000000000000000000000000000000000000000000000000082167f80ac58cd00000000000000000000000000000000000000000000000000000000148061035657507fffffffff0000000000000000000000000000000000000000000000000000000082167f5b5e139f00000000000000000000000000000000000000000000000000000000145b806103a257507f01ffc9a7000000000000000000000000000000000000000000000000000000007fffffffff000000000000000000000000000000000000000000000000000000008316145b92915050565b6060600080546103b79061193e565b80601f01602080910402602001604051908101604052809291908181526020018280546103e39061193e565b80156104305780601f1061040557610100808354040283529160200191610430565b820191906000526020600020905b81548152906001019060200180831161041357829003601f168201915b5050505050905090565b6006546001600160a01b0316639e97b8f66002336040518363ffffffff1660e01b815260040161046b929190611978565b602060405180830381865afa158015610488573d6000803e3d6000fd5b505050506040513d601f19601f820116820180604052508101906104ac91906119b2565b6105075760405162461bcd60e51b815260206004820152602160248201527f4552433732313a20726571756972656420726f6c65206e6f74206772616e74656044820152601960fa1b60648201526084015b60405180910390fd5b6000828152600260205260409020546001600160a01b031661056b5760405162461bcd60e51b815260206004820152601860248201527f4552433732313a20696e76616c696420746f6b656e204944000000000000000060448201526064016104fe565b8060405160200161057c91906119cf565b60408051601f198184030181529181526000848152600960205220906105a29082611a89565b505050565b6006546001600160a01b0316639e97b8f66002336040518363ffffffff1660e01b81526004016105d8929190611978565b602060405180830381865afa1580156105f5573d6000803e3d6000fd5b505050506040513d601f19601f8201168201806040525081019061061991906119b2565b61066f5760405162461bcd60e51b815260206004820152602160248201527f4552433732313a20726571756972656420726f6c65206e6f74206772616e74656044820152601960fa1b60648201526084016104fe565b6006805473ffffffffffffffffffffffffffffffffffffffff19166001600160a01b0392909216919091179055565b6006546001600160a01b0316639e97b8f66002336040518363ffffffff1660e01b81526004016106cf929190611978565b602060405180830381865afa1580156106ec573d6000803e3d6000fd5b505050506040513d601f19601f8201168201806040525081019061071091906119b2565b6107665760405162461bcd60e51b815260206004820152602160248201527f4552433732313a20726571756972656420726f6c65206e6f74206772616e74656044820152601960fa1b60648201526084016104fe565b6105a2838383610e15565b6006546001600160a01b0316639e97b8f66002336040518363ffffffff1660e01b81526004016107a2929190611978565b602060405180830381865afa1580156107bf573d6000803e3d6000fd5b505050506040513d601f19601f820116820180604052508101906107e391906119b2565b6108395760405162461bcd60e51b815260206004820152602160248201527f4552433732313a20726571756972656420726f6c65206e6f74206772616e74656044820152601960fa1b60648201526084016104fe565b6108458160085461104b565b60086000815461085490611b49565b9091555050565b6006546001600160a01b0316639e97b8f66002336040518363ffffffff1660e01b815260040161088c929190611978565b602060405180830381865afa1580156108a9573d6000803e3d6000fd5b505050506040513d601f19601f820116820180604052508101906108cd91906119b2565b6109235760405162461bcd60e51b815260206004820152602160248201527f4552433732313a20726571756972656420726f6c65206e6f74206772616e74656044820152601960fa1b60648201526084016104fe565b6105a283838360405180602001604052806000815250610bf4565b6006546001600160a01b0316639e97b8f66002336040518363ffffffff1660e01b815260040161096f929190611978565b602060405180830381865afa15801561098c573d6000803e3d6000fd5b505050506040513d601f19601f820116820180604052508101906109b091906119b2565b610a065760405162461bcd60e51b815260206004820152602160248201527f4552433732313a20726571756972656420726f6c65206e6f74206772616e74656044820152601960fa1b60648201526084016104fe565b610a0f81611065565b50565b6000818152600260205260408120546001600160a01b0316806103a25760405162461bcd60e51b815260206004820152601860248201527f4552433732313a20696e76616c696420746f6b656e204944000000000000000060448201526064016104fe565b60006001600160a01b038216610af55760405162461bcd60e51b815260206004820152602960248201527f4552433732313a2061646472657373207a65726f206973206e6f74206120766160448201527f6c6964206f776e6572000000000000000000000000000000000000000000000060648201526084016104fe565b506001600160a01b031660009081526003602052604090205490565b6060600180546103b79061193e565b6006546001600160a01b0316639e97b8f66002336040518363ffffffff1660e01b8152600401610b51929190611978565b602060405180830381865afa158015610b6e573d6000803e3d6000fd5b505050506040513d601f19601f82011682018060405250810190610b9291906119b2565b610be85760405162461bcd60e51b815260206004820152602160248201527f4552433732313a20726571756972656420726f6c65206e6f74206772616e74656044820152601960fa1b60648201526084016104fe565b60076101b28282611a89565b6006546001600160a01b0316639e97b8f66002336040518363ffffffff1660e01b8152600401610c25929190611978565b602060405180830381865afa158015610c42573d6000803e3d6000fd5b505050506040513d601f19601f82011682018060405250810190610c6691906119b2565b610cbc5760405162461bcd60e51b815260206004820152602160248201527f4552433732313a20726571756972656420726f6c65206e6f74206772616e74656044820152601960fa1b60648201526084016104fe565b610cc884848484611107565b50505050565b6060610cd982611190565b60008281526009602052604081208054610cf29061193e565b80601f0160208091040260200160405190810160405280929190818152602001828054610d1e9061193e565b8015610d6b5780601f10610d4057610100808354040283529160200191610d6b565b820191906000526020600020905b815481529060010190602001808311610d4e57829003601f168201915b50505050509050600081511115610d825792915050565b60078054610d8f9061193e565b80601f0160208091040260200160405190810160405280929190818152602001828054610dbb9061193e565b8015610e085780601f10610ddd57610100808354040283529160200191610e08565b820191906000526020600020905b815481529060010190602001808311610deb57829003601f168201915b5050505050915050919050565b826001600160a01b0316610e2882610a12565b6001600160a01b031614610ea45760405162461bcd60e51b815260206004820152602560248201527f4552433732313a207472616e736665722066726f6d20696e636f72726563742060448201527f6f776e657200000000000000000000000000000000000000000000000000000060648201526084016104fe565b6001600160a01b038216610f1f5760405162461bcd60e51b8152602060048201526024808201527f4552433732313a207472616e7366657220746f20746865207a65726f2061646460448201527f726573730000000000000000000000000000000000000000000000000000000060648201526084016104fe565b826001600160a01b0316610f3282610a12565b6001600160a01b031614610fae5760405162461bcd60e51b815260206004820152602560248201527f4552433732313a207472616e736665722066726f6d20696e636f72726563742060448201527f6f776e657200000000000000000000000000000000000000000000000000000060648201526084016104fe565b6000818152600460209081526040808320805473ffffffffffffffffffffffffffffffffffffffff199081169091556001600160a01b0387811680865260038552838620805460001901905590871680865283862080546001019055868652600290945282852080549092168417909155905184937fddf252ad1be2c89b69c2b068fc378daa952ba7f163c4a11628f55a4df523b3ef91a4505050565b6101b28282604051806020016040528060008152506111f4565b600061107082610a12565b905061107b82610a12565b6000838152600460209081526040808320805473ffffffffffffffffffffffffffffffffffffffff199081169091556001600160a01b0385168085526003845282852080546000190190558785526002909352818420805490911690555192935084927fddf252ad1be2c89b69c2b068fc378daa952ba7f163c4a11628f55a4df523b3ef908390a45050565b611112848484610e15565b61111e8484848461127d565b610cc85760405162461bcd60e51b815260206004820152603260248201527f4552433732313a207472616e7366657220746f206e6f6e20455243373231526560448201527f63656976657220696d706c656d656e746572000000000000000000000000000060648201526084016104fe565b6000818152600260205260409020546001600160a01b0316610a0f5760405162461bcd60e51b815260206004820152601860248201527f4552433732313a20696e76616c696420746f6b656e204944000000000000000060448201526064016104fe565b6111fe838361141f565b61120b600084848461127d565b6105a25760405162461bcd60e51b815260206004820152603260248201527f4552433732313a207472616e7366657220746f206e6f6e20455243373231526560448201527f63656976657220696d706c656d656e746572000000000000000000000000000060648201526084016104fe565b60006001600160a01b0384163b15611413576040517f150b7a020000000000000000000000000000000000000000000000000000000081526001600160a01b0385169063150b7a02906112da903390899088908890600401611b71565b6020604051808303816000875af1925050508015611315575060408051601f3d908101601f1916820190925261131291810190611bad565b60015b6113c8573d808015611343576040519150601f19603f3d011682016040523d82523d6000602084013e611348565b606091505b5080516000036113c05760405162461bcd60e51b815260206004820152603260248201527f4552433732313a207472616e7366657220746f206e6f6e20455243373231526560448201527f63656976657220696d706c656d656e746572000000000000000000000000000060648201526084016104fe565b805181602001fd5b7fffffffff00000000000000000000000000000000000000000000000000000000167f150b7a0200000000000000000000000000000000000000000000000000000000149050611417565b5060015b949350505050565b6001600160a01b0382166114755760405162461bcd60e51b815260206004820181905260248201527f4552433732313a206d696e7420746f20746865207a65726f206164647265737360448201526064016104fe565b6000818152600260205260409020546001600160a01b0316156114da5760405162461bcd60e51b815260206004820152601c60248201527f4552433732313a20746f6b656e20616c7265616479206d696e7465640000000060448201526064016104fe565b6000818152600260205260409020546001600160a01b03161561153f5760405162461bcd60e51b815260206004820152601c60248201527f4552433732313a20746f6b656e20616c7265616479206d696e7465640000000060448201526064016104fe565b6001600160a01b0382166000818152600360209081526040808320805460010190558483526002909152808220805473ffffffffffffffffffffffffffffffffffffffff19168417905551839291907fddf252ad1be2c89b69c2b068fc378daa952ba7f163c4a11628f55a4df523b3ef908290a45050565b7fffffffff0000000000000000000000000000000000000000000000000000000081168114610a0f57600080fd5b6000602082840312156115f757600080fd5b8135611602816115b7565b9392505050565b60005b8381101561162457818101518382015260200161160c565b50506000910152565b60008151808452611645816020860160208601611609565b601f01601f19169290920160200192915050565b602081526000611602602083018461162d565b60006020828403121561167e57600080fd5b5035919050565b80356001600160a01b038116811461169c57600080fd5b919050565b600080604083850312156116b457600080fd5b6116bd83611685565b946020939093013593505050565b634e487b7160e01b600052604160045260246000fd5b600067ffffffffffffffff808411156116fc576116fc6116cb565b604051601f8501601f19908116603f01168101908282118183101715611724576117246116cb565b8160405280935085815286868601111561173d57600080fd5b858560208301376000602087830101525050509392505050565b600082601f83011261176857600080fd5b611602838335602085016116e1565b6000806040838503121561178a57600080fd5b82359150602083013567ffffffffffffffff8111156117a857600080fd5b6117b485828601611757565b9150509250929050565b6000602082840312156117d057600080fd5b61160282611685565b6000806000606084860312156117ee57600080fd5b6117f784611685565b925061180560208501611685565b9150604084013590509250925092565b60006020828403121561182757600080fd5b813567ffffffffffffffff81111561183e57600080fd5b61141784828501611757565b8015158114610a0f57600080fd5b6000806040838503121561186b57600080fd5b61187483611685565b915060208301356118848161184a565b809150509250929050565b600080600080608085870312156118a557600080fd5b6118ae85611685565b93506118bc60208601611685565b925060408501359150606085013567ffffffffffffffff8111156118df57600080fd5b8501601f810187136118f057600080fd5b6118ff878235602084016116e1565b91505092959194509250565b6000806040838503121561191e57600080fd5b61192783611685565b915061193560208401611685565b90509250929050565b600181811c9082168061195257607f821691505b60208210810361197257634e487b7160e01b600052602260045260246000fd5b50919050565b604081016003841061199a57634e487b7160e01b600052602160045260246000fd5b9281526001600160a01b039190911660209091015290565b6000602082840312156119c457600080fd5b81516116028161184a565b7f7b2022696d616765223a20220000000000000000000000000000000000000000815260008251611a0781600c850160208701611609565b7f227d000000000000000000000000000000000000000000000000000000000000600c939091019283015250600e01919050565b601f8211156105a257600081815260208120601f850160051c81016020861015611a625750805b601f850160051c820191505b81811015611a8157828155600101611a6e565b505050505050565b815167ffffffffffffffff811115611aa357611aa36116cb565b611ab781611ab1845461193e565b84611a3b565b602080601f831160018114611aec5760008415611ad45750858301515b600019600386901b1c1916600185901b178555611a81565b600085815260208120601f198616915b82811015611b1b57888601518255948401946001909101908401611afc565b5085821015611b395787850151600019600388901b60f8161c191681555b5050505050600190811b01905550565b60006000198203611b6a57634e487b7160e01b600052601160045260246000fd5b5060010190565b60006001600160a01b03808716835280861660208401525083604083015260806060830152611ba3608083018461162d565b9695505050505050565b600060208284031215611bbf57600080fd5b8151611602816115b756fea26469706673582212201db09f4eb0871daed7091caf45ab802b8462333a505ab84955a48ff24a67684064736f6c63430008110033",
  "devdoc": {
    "kind": "dev",
    "methods": {
      "approve(address,uint256)": {
        "details": "See {IERC721-approve}."
      },
      "balanceOf(address)": {
        "details": "See {IERC721-balanceOf}."
      },
      "name()": {
        "details": "See {IERC721Metadata-name}."
      },
      "ownerOf(uint256)": {
        "details": "See {IERC721-ownerOf}."
      },
      "safeTransferFrom(address,address,uint256)": {
        "details": "See {IERC721-safeTransferFrom}."
      },
      "safeTransferFrom(address,address,uint256,bytes)": {
        "details": "See {IERC721-safeTransferFrom}."
      },
      "supportsInterface(bytes4)": {
        "details": "See {IERC165-supportsInterface}."
      },
      "symbol()": {
        "details": "See {IERC721Metadata-symbol}."
      },
      "tokenURI(uint256)": {
        "details": "See {IERC721Metadata-tokenURI}."
      },
      "transferFrom(address,address,uint256)": {
        "details": "See {IERC721-transferFrom}."
      }
    },
    "version": 1
  },
  "userdoc": {
    "kind": "user",
    "methods": {},
    "version": 1
  },
  "storageLayout": {
    "storage": [
      {
        "astId": 828,
        "contract": "src/ERC721_KYC.sol:ERC721_KYC",
        "label": "_name",
        "offset": 0,
        "slot": "0",
        "type": "t_string_storage"
      },
      {
        "astId": 830,
        "contract": "src/ERC721_KYC.sol:ERC721_KYC",
        "label": "_symbol",
        "offset": 0,
        "slot": "1",
        "type": "t_string_storage"
      },
      {
        "astId": 834,
        "contract": "src/ERC721_KYC.sol:ERC721_KYC",
        "label": "_owners",
        "offset": 0,
        "slot": "2",
        "type": "t_mapping(t_uint256,t_address)"
      },
      {
        "astId": 838,
        "contract": "src/ERC721_KYC.sol:ERC721_KYC",
        "label": "_balances",
        "offset": 0,
        "slot": "3",
        "type": "t_mapping(t_address,t_uint256)"
      },
      {
        "astId": 842,
        "contract": "src/ERC721_KYC.sol:ERC721_KYC",
        "label": "_tokenApprovals",
        "offset": 0,
        "slot": "4",
        "type": "t_mapping(t_uint256,t_address)"
      },
      {
        "astId": 848,
        "contract": "src/ERC721_KYC.sol:ERC721_KYC",
        "label": "_operatorApprovals",
        "offset": 0,
        "slot": "5",
        "type": "t_mapping(t_address,t_mapping(t_address,t_bool))"
      },
      {
        "astId": 5192,
        "contract": "src/ERC721_KYC.sol:ERC721_KYC",
        "label": "_access",
        "offset": 0,
        "slot": "6",
        "type": "t_contract(AccessRoles)3660"
      },
      {
        "astId": 5194,
        "contract": "src/ERC721_KYC.sol:ERC721_KYC",
        "label": "_defaultTokenURI",
        "offset": 0,
        "slot": "7",
        "type": "t_string_storage"
      },
      {
        "astId": 5196,
        "contract": "src/ERC721_KYC.sol:ERC721_KYC",
        "label": "_tokenId",
        "offset": 0,
        "slot": "8",
        "type": "t_uint256"
      },
      {
        "astId": 5200,
        "contract": "src/ERC721_KYC.sol:ERC721_KYC",
        "label": "_tokenURIs",
        "offset": 0,
        "slot": "9",
        "type": "t_mapping(t_uint256,t_string_storage)"
      }
    ],
    "types": {
      "t_address": {
        "encoding": "inplace",
        "label": "address",
        "numberOfBytes": "20"
      },
      "t_bool": {
        "encoding": "inplace",
        "label": "bool",
        "numberOfBytes": "1"
      },
      "t_contract(AccessRoles)3660": {
        "encoding": "inplace",
        "label": "contract AccessRoles",
        "numberOfBytes": "20"
      },
      "t_mapping(t_address,t_bool)": {
        "encoding": "mapping",
        "key": "t_address",
        "label": "mapping(address => bool)",
        "numberOfBytes": "32",
        "value": "t_bool"
      },
      "t_mapping(t_address,t_mapping(t_address,t_bool))": {
        "encoding": "mapping",
        "key": "t_address",
        "label": "mapping(address => mapping(address => bool))",
        "numberOfBytes": "32",
        "value": "t_mapping(t_address,t_bool)"
      },
      "t_mapping(t_address,t_uint256)": {
        "encoding": "mapping",
        "key": "t_address",
        "label": "mapping(address => uint256)",
        "numberOfBytes": "32",
        "value": "t_uint256"
      },
      "t_mapping(t_uint256,t_address)": {
        "encoding": "mapping",
        "key": "t_uint256",
        "label": "mapping(uint256 => address)",
        "numberOfBytes": "32",
        "value": "t_address"
      },
      "t_mapping(t_uint256,t_string_storage)": {
        "encoding": "mapping",
        "key": "t_uint256",
        "label": "mapping(uint256 => string)",
        "numberOfBytes": "32",
        "value": "t_string_storage"
      },
      "t_string_storage": {
        "encoding": "bytes",
        "label": "string",
        "numberOfBytes": "32"
      },
      "t_uint256": {
        "encoding": "inplace",
        "label": "uint256",
        "numberOfBytes": "32"
      }
    }
  }
}