{
  "address": "0xE3F86F87149e66Ce2292F0ba013b19d30a5eFff1",
  "abi": [
    {
      "inputs": [
        {
          "internalType": "string",
          "name": "name_",
          "type": "string"
        },
        {
          "internalType": "string",
          "name": "symbol_",
          "type": "string"
        },
        {
          "internalType": "address",
          "name": "access_",
          "type": "address"
        }
      ],
      "stateMutability": "nonpayable",
      "type": "constructor"
    },
    {
      "anonymous": false,
      "inputs": [
        {
          "indexed": true,
          "internalType": "address",
          "name": "owner",
          "type": "address"
        },
        {
          "indexed": true,
          "internalType": "address",
          "name": "approved",
          "type": "address"
        },
        {
          "indexed": true,
          "internalType": "uint256",
          "name": "tokenId",
          "type": "uint256"
        }
      ],
      "name": "Approval",
      "type": "event"
    },
    {
      "anonymous": false,
      "inputs": [
        {
          "indexed": true,
          "internalType": "address",
          "name": "owner",
          "type": "address"
        },
        {
          "indexed": true,
          "internalType": "address",
          "name": "operator",
          "type": "address"
        },
        {
          "indexed": false,
          "internalType": "bool",
          "name": "approved",
          "type": "bool"
        }
      ],
      "name": "ApprovalForAll",
      "type": "event"
    },
    {
      "anonymous": false,
      "inputs": [
        {
          "indexed": true,
          "internalType": "address",
          "name": "from",
          "type": "address"
        },
        {
          "indexed": true,
          "internalType": "address",
          "name": "to",
          "type": "address"
        },
        {
          "indexed": true,
          "internalType": "uint256",
          "name": "tokenId",
          "type": "uint256"
        }
      ],
      "name": "Transfer",
      "type": "event"
    },
    {
      "inputs": [
        {
          "internalType": "address",
          "name": "",
          "type": "address"
        },
        {
          "internalType": "uint256",
          "name": "",
          "type": "uint256"
        }
      ],
      "name": "approve",
      "outputs": [],
      "stateMutability": "nonpayable",
      "type": "function"
    },
    {
      "inputs": [
        {
          "internalType": "address",
          "name": "owner",
          "type": "address"
        }
      ],
      "name": "balanceOf",
      "outputs": [
        {
          "internalType": "uint256",
          "name": "",
          "type": "uint256"
        }
      ],
      "stateMutability": "view",
      "type": "function"
    },
    {
      "inputs": [
        {
          "internalType": "uint256",
          "name": "tokenId",
          "type": "uint256"
        }
      ],
      "name": "burn",
      "outputs": [],
      "stateMutability": "nonpayable",
      "type": "function"
    },
    {
      "inputs": [
        {
          "internalType": "uint256",
          "name": "",
          "type": "uint256"
        }
      ],
      "name": "getApproved",
      "outputs": [
        {
          "internalType": "address",
          "name": "",
          "type": "address"
        }
      ],
      "stateMutability": "view",
      "type": "function"
    },
    {
      "inputs": [
        {
          "internalType": "uint256",
          "name": "tokenId",
          "type": "uint256"
        }
      ],
      "name": "getTokensBurned",
      "outputs": [
        {
          "internalType": "uint256",
          "name": "",
          "type": "uint256"
        }
      ],
      "stateMutability": "view",
      "type": "function"
    },
    {
      "inputs": [
        {
          "internalType": "address",
          "name": "",
          "type": "address"
        },
        {
          "internalType": "address",
          "name": "",
          "type": "address"
        }
      ],
      "name": "isApprovedForAll",
      "outputs": [
        {
          "internalType": "bool",
          "name": "",
          "type": "bool"
        }
      ],
      "stateMutability": "view",
      "type": "function"
    },
    {
      "inputs": [],
      "name": "name",
      "outputs": [
        {
          "internalType": "string",
          "name": "",
          "type": "string"
        }
      ],
      "stateMutability": "view",
      "type": "function"
    },
    {
      "inputs": [
        {
          "internalType": "uint256",
          "name": "tokenId",
          "type": "uint256"
        }
      ],
      "name": "ownerOf",
      "outputs": [
        {
          "internalType": "address",
          "name": "",
          "type": "address"
        }
      ],
      "stateMutability": "view",
      "type": "function"
    },
    {
      "inputs": [
        {
          "internalType": "address",
          "name": "to",
          "type": "address"
        },
        {
          "internalType": "uint256",
          "name": "tokensBurned",
          "type": "uint256"
        }
      ],
      "name": "safeMint",
      "outputs": [],
      "stateMutability": "nonpayable",
      "type": "function"
    },
    {
      "inputs": [
        {
          "internalType": "address",
          "name": "",
          "type": "address"
        },
        {
          "internalType": "address",
          "name": "",
          "type": "address"
        },
        {
          "internalType": "uint256",
          "name": "",
          "type": "uint256"
        }
      ],
      "name": "safeTransferFrom",
      "outputs": [],
      "stateMutability": "nonpayable",
      "type": "function"
    },
    {
      "inputs": [
        {
          "internalType": "address",
          "name": "",
          "type": "address"
        },
        {
          "internalType": "address",
          "name": "",
          "type": "address"
        },
        {
          "internalType": "uint256",
          "name": "",
          "type": "uint256"
        },
        {
          "internalType": "bytes",
          "name": "",
          "type": "bytes"
        }
      ],
      "name": "safeTransferFrom",
      "outputs": [],
      "stateMutability": "nonpayable",
      "type": "function"
    },
    {
      "inputs": [
        {
          "internalType": "address",
          "name": "access_",
          "type": "address"
        }
      ],
      "name": "setAccessControl",
      "outputs": [],
      "stateMutability": "nonpayable",
      "type": "function"
    },
    {
      "inputs": [
        {
          "internalType": "address",
          "name": "",
          "type": "address"
        },
        {
          "internalType": "bool",
          "name": "",
          "type": "bool"
        }
      ],
      "name": "setApprovalForAll",
      "outputs": [],
      "stateMutability": "nonpayable",
      "type": "function"
    },
    {
      "inputs": [
        {
          "internalType": "address",
          "name": "PDE_",
          "type": "address"
        }
      ],
      "name": "setPDE",
      "outputs": [],
      "stateMutability": "nonpayable",
      "type": "function"
    },
    {
      "inputs": [
        {
          "internalType": "string",
          "name": "_tokenURI",
          "type": "string"
        }
      ],
      "name": "setTokenURI",
      "outputs": [],
      "stateMutability": "nonpayable",
      "type": "function"
    },
    {
      "inputs": [
        {
          "internalType": "bytes4",
          "name": "interfaceId",
          "type": "bytes4"
        }
      ],
      "name": "supportsInterface",
      "outputs": [
        {
          "internalType": "bool",
          "name": "",
          "type": "bool"
        }
      ],
      "stateMutability": "view",
      "type": "function"
    },
    {
      "inputs": [],
      "name": "symbol",
      "outputs": [
        {
          "internalType": "string",
          "name": "",
          "type": "string"
        }
      ],
      "stateMutability": "view",
      "type": "function"
    },
    {
      "inputs": [
        {
          "internalType": "uint256",
          "name": "tokenId",
          "type": "uint256"
        }
      ],
      "name": "tokenURI",
      "outputs": [
        {
          "internalType": "string",
          "name": "",
          "type": "string"
        }
      ],
      "stateMutability": "view",
      "type": "function"
    },
    {
      "inputs": [
        {
          "internalType": "address",
          "name": "",
          "type": "address"
        },
        {
          "internalType": "address",
          "name": "",
          "type": "address"
        },
        {
          "internalType": "uint256",
          "name": "",
          "type": "uint256"
        }
      ],
      "name": "transferFrom",
      "outputs": [],
      "stateMutability": "nonpayable",
      "type": "function"
    }
  ],
  "transactionHash": "0xfd3dc6d75f9509c38154bc7b736a61f651055e3c501719ff0715e27b5146876f",
  "args": [
    "PDE_Burn",
    "BURN",
    "0x61E59b638725Af95577eCEe4B45446bCF06AaDB8"
  ],
  "numDeployments": 2,
  "solcInputHash": "98c64c837d2cb3570700a0cd23775576",
  "bytecode": "0x60806040523480156200001157600080fd5b506040516200154238038062001542833981016040819052620000349162000145565b8282600062000044838262000261565b50600162000053828262000261565b5050600680546001600160a01b0319166001600160a01b039390931692909217909155506200032d915050565b634e487b7160e01b600052604160045260246000fd5b600082601f830112620000a857600080fd5b81516001600160401b0380821115620000c557620000c562000080565b604051601f8301601f19908116603f01168101908282118183101715620000f057620000f062000080565b816040528381526020925086838588010111156200010d57600080fd5b600091505b8382101562000131578582018301518183018401529082019062000112565b600093810190920192909252949350505050565b6000806000606084860312156200015b57600080fd5b83516001600160401b03808211156200017357600080fd5b620001818783880162000096565b945060208601519150808211156200019857600080fd5b50620001a78682870162000096565b604086015190935090506001600160a01b0381168114620001c757600080fd5b809150509250925092565b600181811c90821680620001e757607f821691505b6020821081036200020857634e487b7160e01b600052602260045260246000fd5b50919050565b601f8211156200025c57600081815260208120601f850160051c81016020861015620002375750805b601f850160051c820191505b81811015620002585782815560010162000243565b5050505b505050565b81516001600160401b038111156200027d576200027d62000080565b62000295816200028e8454620001d2565b846200020e565b602080601f831160018114620002cd5760008415620002b45750858301515b600019600386901b1c1916600185901b17855562000258565b600085815260208120601f198616915b82811015620002fe57888601518255948401946001909101908401620002dd565b50858210156200031d5787850151600019600388901b60f8161c191681555b5050505050600190811b01905550565b611205806200033d6000396000f3fe608060405234801561001057600080fd5b50600436106101515760003560e01c806370a08231116100cd578063b88d4fde11610081578063c87b56dd11610066578063c87b56dd146102a3578063e0df5b6f146102b6578063e985e9c5146102c957600080fd5b8063b88d4fde1461027c578063c774bc5b1461029057600080fd5b8063a1448194116100b2578063a144819414610248578063a22cb4651461025b578063b2651e291461026957600080fd5b806370a082311461021f57806395d89b411461024057600080fd5b806319129e5a1161012457806342842e0e1161010957806342842e0e146101e657806342966c68146101f95780636352211e1461020c57600080fd5b806319129e5a146101d357806323b872dd146101e657600080fd5b806301ffc9a71461015657806306fdde031461017e578063081812fc14610193578063095ea7b3146101bf575b600080fd5b610169610164366004610cea565b6102df565b60405190151581526020015b60405180910390f35b6101866103c4565b6040516101759190610d33565b6101a76101a1366004610d81565b50600090565b6040516001600160a01b039091168152602001610175565b6101d16101cd366004610db6565b5050565b005b6101d16101e1366004610de0565b610456565b6101d16101f4366004610dfb565b505050565b6101d1610207366004610d81565b610552565b6101a761021a366004610d81565b610634565b61023261022d366004610de0565b610699565b604051908152602001610175565b610186610733565b6101d1610256366004610db6565b610742565b6101d16101cd366004610e45565b610232610277366004610d81565b61083e565b6101d161028a366004610f08565b50505050565b6101d161029e366004610de0565b61085c565b6101866102b1366004610d81565b610953565b6101d16102c4366004610f84565b610966565b6101696102d7366004610fd5565b600092915050565b60007fffffffff0000000000000000000000000000000000000000000000000000000082167f80ac58cd00000000000000000000000000000000000000000000000000000000148061037257507fffffffff0000000000000000000000000000000000000000000000000000000082167f5b5e139f00000000000000000000000000000000000000000000000000000000145b806103be57507f01ffc9a7000000000000000000000000000000000000000000000000000000007fffffffff000000000000000000000000000000000000000000000000000000008316145b92915050565b6060600080546103d390611008565b80601f01602080910402602001604051908101604052809291908181526020018280546103ff90611008565b801561044c5780601f106104215761010080835404028352916020019161044c565b820191906000526020600020905b81548152906001019060200180831161042f57829003601f168201915b5050505050905090565b6006546001600160a01b0316639e97b8f66002336040518363ffffffff1660e01b8152600401610487929190611042565b602060405180830381865afa1580156104a4573d6000803e3d6000fd5b505050506040513d601f19601f820116820180604052508101906104c8919061107c565b6105235760405162461bcd60e51b815260206004820152602160248201527f4552433732313a20726571756972656420726f6c65206e6f74206772616e74656044820152601960fa1b60648201526084015b60405180910390fd5b6006805473ffffffffffffffffffffffffffffffffffffffff19166001600160a01b0392909216919091179055565b6006546001600160a01b0316639e97b8f66002336040518363ffffffff1660e01b8152600401610583929190611042565b602060405180830381865afa1580156105a0573d6000803e3d6000fd5b505050506040513d601f19601f820116820180604052508101906105c4919061107c565b61061a5760405162461bcd60e51b815260206004820152602160248201527f4552433732313a20726571756972656420726f6c65206e6f74206772616e74656044820152601960fa1b606482015260840161051a565b61062381610a3a565b6000908152600a6020526040812055565b6000818152600260205260408120546001600160a01b0316806103be5760405162461bcd60e51b815260206004820152601860248201527f4552433732313a20696e76616c696420746f6b656e2049440000000000000000604482015260640161051a565b60006001600160a01b0382166107175760405162461bcd60e51b815260206004820152602960248201527f4552433732313a2061646472657373207a65726f206973206e6f74206120766160448201527f6c6964206f776e65720000000000000000000000000000000000000000000000606482015260840161051a565b506001600160a01b031660009081526003602052604090205490565b6060600180546103d390611008565b6006546001600160a01b0316639e97b8f66002336040518363ffffffff1660e01b8152600401610773929190611042565b602060405180830381865afa158015610790573d6000803e3d6000fd5b505050506040513d601f19601f820116820180604052508101906107b4919061107c565b61080a5760405162461bcd60e51b815260206004820152602160248201527f4552433732313a20726571756972656420726f6c65206e6f74206772616e74656044820152601960fa1b606482015260840161051a565b61081682600854610adc565b600880546000908152600a60205260408120839055815461083690611099565b909155505050565b600061084982610c74565b506000908152600a602052604090205490565b6006546001600160a01b0316639e97b8f66002336040518363ffffffff1660e01b815260040161088d929190611042565b602060405180830381865afa1580156108aa573d6000803e3d6000fd5b505050506040513d601f19601f820116820180604052508101906108ce919061107c565b6109245760405162461bcd60e51b815260206004820152602160248201527f4552433732313a20726571756972656420726f6c65206e6f74206772616e74656044820152601960fa1b606482015260840161051a565b6007805473ffffffffffffffffffffffffffffffffffffffff19166001600160a01b0392909216919091179055565b606061095e82610c74565b6103be610cdb565b6006546001600160a01b0316639e97b8f66002336040518363ffffffff1660e01b8152600401610997929190611042565b602060405180830381865afa1580156109b4573d6000803e3d6000fd5b505050506040513d601f19601f820116820180604052508101906109d8919061107c565b610a2e5760405162461bcd60e51b815260206004820152602160248201527f4552433732313a20726571756972656420726f6c65206e6f74206772616e74656044820152601960fa1b606482015260840161051a565b60096101cd828261110f565b6000610a4582610634565b9050610a5082610634565b6000838152600460209081526040808320805473ffffffffffffffffffffffffffffffffffffffff199081169091556001600160a01b0385168085526003845282852080546000190190558785526002909352818420805490911690555192935084927fddf252ad1be2c89b69c2b068fc378daa952ba7f163c4a11628f55a4df523b3ef908390a45050565b6001600160a01b038216610b325760405162461bcd60e51b815260206004820181905260248201527f4552433732313a206d696e7420746f20746865207a65726f2061646472657373604482015260640161051a565b6000818152600260205260409020546001600160a01b031615610b975760405162461bcd60e51b815260206004820152601c60248201527f4552433732313a20746f6b656e20616c7265616479206d696e74656400000000604482015260640161051a565b6000818152600260205260409020546001600160a01b031615610bfc5760405162461bcd60e51b815260206004820152601c60248201527f4552433732313a20746f6b656e20616c7265616479206d696e74656400000000604482015260640161051a565b6001600160a01b0382166000818152600360209081526040808320805460010190558483526002909152808220805473ffffffffffffffffffffffffffffffffffffffff19168417905551839291907fddf252ad1be2c89b69c2b068fc378daa952ba7f163c4a11628f55a4df523b3ef908290a45050565b6000818152600260205260409020546001600160a01b0316610cd85760405162461bcd60e51b815260206004820152601860248201527f4552433732313a20696e76616c696420746f6b656e2049440000000000000000604482015260640161051a565b50565b6060600980546103d390611008565b600060208284031215610cfc57600080fd5b81357fffffffff0000000000000000000000000000000000000000000000000000000081168114610d2c57600080fd5b9392505050565b600060208083528351808285015260005b81811015610d6057858101830151858201604001528201610d44565b506000604082860101526040601f19601f8301168501019250505092915050565b600060208284031215610d9357600080fd5b5035919050565b80356001600160a01b0381168114610db157600080fd5b919050565b60008060408385031215610dc957600080fd5b610dd283610d9a565b946020939093013593505050565b600060208284031215610df257600080fd5b610d2c82610d9a565b600080600060608486031215610e1057600080fd5b610e1984610d9a565b9250610e2760208501610d9a565b9150604084013590509250925092565b8015158114610cd857600080fd5b60008060408385031215610e5857600080fd5b610e6183610d9a565b91506020830135610e7181610e37565b809150509250929050565b634e487b7160e01b600052604160045260246000fd5b600067ffffffffffffffff80841115610ead57610ead610e7c565b604051601f8501601f19908116603f01168101908282118183101715610ed557610ed5610e7c565b81604052809350858152868686011115610eee57600080fd5b858560208301376000602087830101525050509392505050565b60008060008060808587031215610f1e57600080fd5b610f2785610d9a565b9350610f3560208601610d9a565b925060408501359150606085013567ffffffffffffffff811115610f5857600080fd5b8501601f81018713610f6957600080fd5b610f7887823560208401610e92565b91505092959194509250565b600060208284031215610f9657600080fd5b813567ffffffffffffffff811115610fad57600080fd5b8201601f81018413610fbe57600080fd5b610fcd84823560208401610e92565b949350505050565b60008060408385031215610fe857600080fd5b610ff183610d9a565b9150610fff60208401610d9a565b90509250929050565b600181811c9082168061101c57607f821691505b60208210810361103c57634e487b7160e01b600052602260045260246000fd5b50919050565b604081016003841061106457634e487b7160e01b600052602160045260246000fd5b9281526001600160a01b039190911660209091015290565b60006020828403121561108e57600080fd5b8151610d2c81610e37565b600060001982036110ba57634e487b7160e01b600052601160045260246000fd5b5060010190565b601f8211156101f457600081815260208120601f850160051c810160208610156110e85750805b601f850160051c820191505b81811015611107578281556001016110f4565b505050505050565b815167ffffffffffffffff81111561112957611129610e7c565b61113d816111378454611008565b846110c1565b602080601f831160018114611172576000841561115a5750858301515b600019600386901b1c1916600185901b178555611107565b600085815260208120601f198616915b828110156111a157888601518255948401946001909101908401611182565b50858210156111bf5787850151600019600388901b60f8161c191681555b5050505050600190811b0190555056fea264697066735822122061793aa042207d0e15e4ac230ae8eb2f516cde89322ec55eed8756685652c47e64736f6c63430008110033",
  "devdoc": {
    "kind": "dev",
    "methods": {
      "balanceOf(address)": {
        "details": "See {IERC721-balanceOf}."
      },
      "name()": {
        "details": "See {IERC721Metadata-name}."
      },
      "ownerOf(uint256)": {
        "details": "See {IERC721-ownerOf}."
      },
      "supportsInterface(bytes4)": {
        "details": "See {IERC165-supportsInterface}."
      },
      "symbol()": {
        "details": "See {IERC721Metadata-symbol}."
      },
      "tokenURI(uint256)": {
        "details": "See {IERC721Metadata-tokenURI}."
      }
    },
    "version": 1
  },
  "userdoc": {
    "kind": "user",
    "methods": {},
    "version": 1
  },
  "storageLayout": {
    "storage": [
      {
        "astId": 828,
        "contract": "src/ERC721_Burn.sol:ERC721_Burn",
        "label": "_name",
        "offset": 0,
        "slot": "0",
        "type": "t_string_storage"
      },
      {
        "astId": 830,
        "contract": "src/ERC721_Burn.sol:ERC721_Burn",
        "label": "_symbol",
        "offset": 0,
        "slot": "1",
        "type": "t_string_storage"
      },
      {
        "astId": 834,
        "contract": "src/ERC721_Burn.sol:ERC721_Burn",
        "label": "_owners",
        "offset": 0,
        "slot": "2",
        "type": "t_mapping(t_uint256,t_address)"
      },
      {
        "astId": 838,
        "contract": "src/ERC721_Burn.sol:ERC721_Burn",
        "label": "_balances",
        "offset": 0,
        "slot": "3",
        "type": "t_mapping(t_address,t_uint256)"
      },
      {
        "astId": 842,
        "contract": "src/ERC721_Burn.sol:ERC721_Burn",
        "label": "_tokenApprovals",
        "offset": 0,
        "slot": "4",
        "type": "t_mapping(t_uint256,t_address)"
      },
      {
        "astId": 848,
        "contract": "src/ERC721_Burn.sol:ERC721_Burn",
        "label": "_operatorApprovals",
        "offset": 0,
        "slot": "5",
        "type": "t_mapping(t_address,t_mapping(t_address,t_bool))"
      },
      {
        "astId": 4904,
        "contract": "src/ERC721_Burn.sol:ERC721_Burn",
        "label": "_access",
        "offset": 0,
        "slot": "6",
        "type": "t_contract(AccessRoles)3660"
      },
      {
        "astId": 4907,
        "contract": "src/ERC721_Burn.sol:ERC721_Burn",
        "label": "_erc20_PDE",
        "offset": 0,
        "slot": "7",
        "type": "t_contract(ERC20_PDE)4892"
      },
      {
        "astId": 4909,
        "contract": "src/ERC721_Burn.sol:ERC721_Burn",
        "label": "_tokenId",
        "offset": 0,
        "slot": "8",
        "type": "t_uint256"
      },
      {
        "astId": 4911,
        "contract": "src/ERC721_Burn.sol:ERC721_Burn",
        "label": "_defaultURI",
        "offset": 0,
        "slot": "9",
        "type": "t_string_storage"
      },
      {
        "astId": 4915,
        "contract": "src/ERC721_Burn.sol:ERC721_Burn",
        "label": "_tokenIdToTokensBurned",
        "offset": 0,
        "slot": "10",
        "type": "t_mapping(t_uint256,t_uint256)"
      }
    ],
    "types": {
      "t_address": {
        "encoding": "inplace",
        "label": "address",
        "numberOfBytes": "20"
      },
      "t_bool": {
        "encoding": "inplace",
        "label": "bool",
        "numberOfBytes": "1"
      },
      "t_contract(AccessRoles)3660": {
        "encoding": "inplace",
        "label": "contract AccessRoles",
        "numberOfBytes": "20"
      },
      "t_contract(ERC20_PDE)4892": {
        "encoding": "inplace",
        "label": "contract ERC20_PDE",
        "numberOfBytes": "20"
      },
      "t_mapping(t_address,t_bool)": {
        "encoding": "mapping",
        "key": "t_address",
        "label": "mapping(address => bool)",
        "numberOfBytes": "32",
        "value": "t_bool"
      },
      "t_mapping(t_address,t_mapping(t_address,t_bool))": {
        "encoding": "mapping",
        "key": "t_address",
        "label": "mapping(address => mapping(address => bool))",
        "numberOfBytes": "32",
        "value": "t_mapping(t_address,t_bool)"
      },
      "t_mapping(t_address,t_uint256)": {
        "encoding": "mapping",
        "key": "t_address",
        "label": "mapping(address => uint256)",
        "numberOfBytes": "32",
        "value": "t_uint256"
      },
      "t_mapping(t_uint256,t_address)": {
        "encoding": "mapping",
        "key": "t_uint256",
        "label": "mapping(uint256 => address)",
        "numberOfBytes": "32",
        "value": "t_address"
      },
      "t_mapping(t_uint256,t_uint256)": {
        "encoding": "mapping",
        "key": "t_uint256",
        "label": "mapping(uint256 => uint256)",
        "numberOfBytes": "32",
        "value": "t_uint256"
      },
      "t_string_storage": {
        "encoding": "bytes",
        "label": "string",
        "numberOfBytes": "32"
      },
      "t_uint256": {
        "encoding": "inplace",
        "label": "uint256",
        "numberOfBytes": "32"
      }
    }
  }
}